{
  "_format": "hh-sol-artifact-1",
  "contractName": "Voting",
  "sourceName": "contracts/Voting.sol",
  "abi": [
    {
      "anonymous": false,
      "inputs": [
        {
          "indexed": false,
          "internalType": "uint256",
          "name": "proposalId",
          "type": "uint256"
        },
        {
          "indexed": false,
          "internalType": "string",
          "name": "name",
          "type": "string"
        },
        {
          "indexed": false,
          "internalType": "address",
          "name": "author",
          "type": "address"
        }
      ],
      "name": "ProposalCreated",
      "type": "event"
    },
    {
      "anonymous": false,
      "inputs": [
        {
          "indexed": false,
          "internalType": "uint256",
          "name": "proposalId",
          "type": "uint256"
        },
        {
          "indexed": false,
          "internalType": "address",
          "name": "voter",
          "type": "address"
        }
      ],
      "name": "Voted",
      "type": "event"
    },
    {
      "inputs": [
        {
          "internalType": "string",
          "name": "_name",
          "type": "string"
        }
      ],
      "name": "createProposal",
      "outputs": [],
      "stateMutability": "nonpayable",
      "type": "function"
    },
    {
      "inputs": [],
      "name": "getProposals",
      "outputs": [
        {
          "components": [
            {
              "internalType": "address",
              "name": "author",
              "type": "address"
            },
            {
              "internalType": "string",
              "name": "name",
              "type": "string"
            },
            {
              "internalType": "uint256",
              "name": "votecount",
              "type": "uint256"
            },
            {
              "internalType": "uint256",
              "name": "timestamp",
              "type": "uint256"
            }
          ],
          "internalType": "struct Voting.Proposal[]",
          "name": "",
          "type": "tuple[]"
        }
      ],
      "stateMutability": "view",
      "type": "function"
    },
    {
      "inputs": [
        {
          "internalType": "address",
          "name": "",
          "type": "address"
        }
      ],
      "name": "hasVoted",
      "outputs": [
        {
          "internalType": "bool",
          "name": "",
          "type": "bool"
        }
      ],
      "stateMutability": "view",
      "type": "function"
    },
    {
      "inputs": [
        {
          "internalType": "uint256",
          "name": "",
          "type": "uint256"
        }
      ],
      "name": "proposals",
      "outputs": [
        {
          "internalType": "address",
          "name": "author",
          "type": "address"
        },
        {
          "internalType": "string",
          "name": "name",
          "type": "string"
        },
        {
          "internalType": "uint256",
          "name": "votecount",
          "type": "uint256"
        },
        {
          "internalType": "uint256",
          "name": "timestamp",
          "type": "uint256"
        }
      ],
      "stateMutability": "view",
      "type": "function"
    },
    {
      "inputs": [
        {
          "internalType": "uint256",
          "name": "_proposalId",
          "type": "uint256"
        }
      ],
      "name": "vote",
      "outputs": [],
      "stateMutability": "nonpayable",
      "type": "function"
    }
  ],
  "bytecode": "0x6080604052348015600f57600080fd5b506111698061001f6000396000f3fe608060405234801561001057600080fd5b50600436106100575760003560e01c80630121b93f1461005c578063013cf08b1461007857806309eef43e146100ab57806349c2a1a6146100db57806362564c48146100f7575b600080fd5b610076600480360381019061007191906106cf565b610115565b005b610092600480360381019061008d91906106cf565b6102b9565b6040516100a294939291906107dc565b60405180910390f35b6100c560048036038101906100c09190610854565b6103a1565b6040516100d2919061089c565b60405180910390f35b6100f560048036038101906100f091906109ec565b6103c1565b005b6100ff61052a565b60405161010c9190610bc2565b60405180910390f35b600080549050811061015c576040517f08c379a000000000000000000000000000000000000000000000000000000000815260040161015390610c30565b60405180910390fd5b600160003373ffffffffffffffffffffffffffffffffffffffff1673ffffffffffffffffffffffffffffffffffffffff16815260200190815260200160002060009054906101000a900460ff16156101e9576040517f08c379a00000000000000000000000000000000000000000000000000000000081526004016101e090610c9c565b60405180910390fd5b6001600082815481106101ff576101fe610cbc565b5b9060005260206000209060040201600201600082825461021f9190610d1a565b9250508190555060018060003373ffffffffffffffffffffffffffffffffffffffff1673ffffffffffffffffffffffffffffffffffffffff16815260200190815260200160002060006101000a81548160ff0219169083151502179055507f030b0f8dcd86a031eddb071f91882edeac8173663ba775713b677b42b51be44b81336040516102ae929190610d4e565b60405180910390a150565b600081815481106102c957600080fd5b90600052602060002090600402016000915090508060000160009054906101000a900473ffffffffffffffffffffffffffffffffffffffff169080600101805461031290610da6565b80601f016020809104026020016040519081016040528092919081815260200182805461033e90610da6565b801561038b5780601f106103605761010080835404028352916020019161038b565b820191906000526020600020905b81548152906001019060200180831161036e57829003601f168201915b5050505050908060020154908060030154905084565b60016020528060005260406000206000915054906101000a900460ff1681565b6000815111610405576040517f08c379a00000000000000000000000000000000000000000000000000000000081526004016103fc90610e23565b60405180910390fd5b600060405180608001604052803373ffffffffffffffffffffffffffffffffffffffff1681526020018381526020016000815260200142815250908060018154018082558091505060019003906000526020600020906004020160009091909190915060008201518160000160006101000a81548173ffffffffffffffffffffffffffffffffffffffff021916908373ffffffffffffffffffffffffffffffffffffffff16021790555060208201518160010190816104c49190610fef565b50604082015181600201556060820151816003015550507fc8c078bfee58e5822588f08b4509ed1eb5058e03f666cca84dd2d44bf5c288a8600160008054905061050e91906110c1565b823360405161051f939291906110f5565b60405180910390a150565b60606000805480602002602001604051908101604052809291908181526020016000905b8282101561067c57838290600052602060002090600402016040518060800160405290816000820160009054906101000a900473ffffffffffffffffffffffffffffffffffffffff1673ffffffffffffffffffffffffffffffffffffffff1673ffffffffffffffffffffffffffffffffffffffff1681526020016001820180546105d790610da6565b80601f016020809104026020016040519081016040528092919081815260200182805461060390610da6565b80156106505780601f1061062557610100808354040283529160200191610650565b820191906000526020600020905b81548152906001019060200180831161063357829003601f168201915b50505050508152602001600282015481526020016003820154815250508152602001906001019061054e565b50505050905090565b6000604051905090565b600080fd5b600080fd5b6000819050919050565b6106ac81610699565b81146106b757600080fd5b50565b6000813590506106c9816106a3565b92915050565b6000602082840312156106e5576106e461068f565b5b60006106f3848285016106ba565b91505092915050565b600073ffffffffffffffffffffffffffffffffffffffff82169050919050565b6000610727826106fc565b9050919050565b6107378161071c565b82525050565b600081519050919050565b600082825260208201905092915050565b60005b8381101561077757808201518184015260208101905061075c565b60008484015250505050565b6000601f19601f8301169050919050565b600061079f8261073d565b6107a98185610748565b93506107b9818560208601610759565b6107c281610783565b840191505092915050565b6107d681610699565b82525050565b60006080820190506107f1600083018761072e565b81810360208301526108038186610794565b905061081260408301856107cd565b61081f60608301846107cd565b95945050505050565b6108318161071c565b811461083c57600080fd5b50565b60008135905061084e81610828565b92915050565b60006020828403121561086a5761086961068f565b5b60006108788482850161083f565b91505092915050565b60008115159050919050565b61089681610881565b82525050565b60006020820190506108b1600083018461088d565b92915050565b600080fd5b600080fd5b7f4e487b7100000000000000000000000000000000000000000000000000000000600052604160045260246000fd5b6108f982610783565b810181811067ffffffffffffffff82111715610918576109176108c1565b5b80604052505050565b600061092b610685565b905061093782826108f0565b919050565b600067ffffffffffffffff821115610957576109566108c1565b5b61096082610783565b9050602081019050919050565b82818337600083830152505050565b600061098f61098a8461093c565b610921565b9050828152602081018484840111156109ab576109aa6108bc565b5b6109b684828561096d565b509392505050565b600082601f8301126109d3576109d26108b7565b5b81356109e384826020860161097c565b91505092915050565b600060208284031215610a0257610a0161068f565b5b600082013567ffffffffffffffff811115610a2057610a1f610694565b5b610a2c848285016109be565b91505092915050565b600081519050919050565b600082825260208201905092915050565b6000819050602082019050919050565b610a6a8161071c565b82525050565b600082825260208201905092915050565b6000610a8c8261073d565b610a968185610a70565b9350610aa6818560208601610759565b610aaf81610783565b840191505092915050565b610ac381610699565b82525050565b6000608083016000830151610ae16000860182610a61565b5060208301518482036020860152610af98282610a81565b9150506040830151610b0e6040860182610aba565b506060830151610b216060860182610aba565b508091505092915050565b6000610b388383610ac9565b905092915050565b6000602082019050919050565b6000610b5882610a35565b610b628185610a40565b935083602082028501610b7485610a51565b8060005b85811015610bb05784840389528151610b918582610b2c565b9450610b9c83610b40565b925060208a01995050600181019050610b78565b50829750879550505050505092915050565b60006020820190508181036000830152610bdc8184610b4d565b905092915050565b7f50726f706f73616c20546964616b2056616c6964000000000000000000000000600082015250565b6000610c1a601483610748565b9150610c2582610be4565b602082019050919050565b60006020820190508181036000830152610c4981610c0d565b9050919050565b7f416e6461207375646168206d656d696c69682100000000000000000000000000600082015250565b6000610c86601383610748565b9150610c9182610c50565b602082019050919050565b60006020820190508181036000830152610cb581610c79565b9050919050565b7f4e487b7100000000000000000000000000000000000000000000000000000000600052603260045260246000fd5b7f4e487b7100000000000000000000000000000000000000000000000000000000600052601160045260246000fd5b6000610d2582610699565b9150610d3083610699565b9250828201905080821115610d4857610d47610ceb565b5b92915050565b6000604082019050610d6360008301856107cd565b610d70602083018461072e565b9392505050565b7f4e487b7100000000000000000000000000000000000000000000000000000000600052602260045260246000fd5b60006002820490506001821680610dbe57607f821691505b602082108103610dd157610dd0610d77565b5b50919050565b7f4e616d6120746964616b2062697361206b6f736f6e6700000000000000000000600082015250565b6000610e0d601683610748565b9150610e1882610dd7565b602082019050919050565b60006020820190508181036000830152610e3c81610e00565b9050919050565b60008190508160005260206000209050919050565b60006020601f8301049050919050565b600082821b905092915050565b600060088302610ea57fffffffffffffffffffffffffffffffffffffffffffffffffffffffffffffffff82610e68565b610eaf8683610e68565b95508019841693508086168417925050509392505050565b6000819050919050565b6000610eec610ee7610ee284610699565b610ec7565b610699565b9050919050565b6000819050919050565b610f0683610ed1565b610f1a610f1282610ef3565b848454610e75565b825550505050565b600090565b610f2f610f22565b610f3a818484610efd565b505050565b5b81811015610f5e57610f53600082610f27565b600181019050610f40565b5050565b601f821115610fa357610f7481610e43565b610f7d84610e58565b81016020851015610f8c578190505b610fa0610f9885610e58565b830182610f3f565b50505b505050565b600082821c905092915050565b6000610fc660001984600802610fa8565b1980831691505092915050565b6000610fdf8383610fb5565b9150826002028217905092915050565b610ff88261073d565b67ffffffffffffffff811115611011576110106108c1565b5b61101b8254610da6565b611026828285610f62565b600060209050601f8311600181146110595760008415611047578287015190505b6110518582610fd3565b8655506110b9565b601f19841661106786610e43565b60005b8281101561108f5784890151825560018201915060208501945060208101905061106a565b868310156110ac57848901516110a8601f891682610fb5565b8355505b6001600288020188555050505b505050505050565b60006110cc82610699565b91506110d783610699565b92508282039050818111156110ef576110ee610ceb565b5b92915050565b600060608201905061110a60008301866107cd565b818103602083015261111c8185610794565b905061112b604083018461072e565b94935050505056fea26469706673582212207dd42a4b7b69fbcd7f6366566bff8b4316484eaca99a8092de465192d44e511364736f6c634300081c0033",
  "linkReferences": {},
  "deployedLinkReferences": {}
}