{
  "_format": "hh-sol-artifact-1",
  "contractName": "Voting",
  "sourceName": "contracts/Voting.sol",
  "abi": [
    {
      "anonymous": false,
      "inputs": [
        {
          "indexed": false,
          "internalType": "uint256",
          "name": "proposalId",
          "type": "uint256"
        },
        {
          "indexed": false,
          "internalType": "string",
          "name": "name",
          "type": "string"
        },
        {
          "indexed": false,
          "internalType": "address",
          "name": "author",
          "type": "address"
        }
      ],
      "name": "ProposalCreated",
      "type": "event"
    },
    {
      "anonymous": false,
      "inputs": [
        {
          "indexed": false,
          "internalType": "uint256",
          "name": "proposalId",
          "type": "uint256"
        },
        {
          "indexed": false,
          "internalType": "address",
          "name": "voter",
          "type": "address"
        }
      ],
      "name": "Voted",
      "type": "event"
    },
    {
      "inputs": [
        {
          "internalType": "string",
          "name": "_name",
          "type": "string"
        },
        {
          "internalType": "uint256",
          "name": "_timestamp",
          "type": "uint256"
        }
      ],
      "name": "createProposal",
      "outputs": [],
      "stateMutability": "nonpayable",
      "type": "function"
    },
    {
      "inputs": [],
      "name": "getProposals",
      "outputs": [
        {
          "components": [
            {
              "internalType": "address",
              "name": "author",
              "type": "address"
            },
            {
              "internalType": "string",
              "name": "name",
              "type": "string"
            },
            {
              "internalType": "uint256",
              "name": "votecount",
              "type": "uint256"
            },
            {
              "internalType": "uint256",
              "name": "timestamp",
              "type": "uint256"
            }
          ],
          "internalType": "struct Voting.Proposal[]",
          "name": "",
          "type": "tuple[]"
        }
      ],
      "stateMutability": "view",
      "type": "function"
    },
    {
      "inputs": [
        {
          "internalType": "address",
          "name": "",
          "type": "address"
        }
      ],
      "name": "hasVoted",
      "outputs": [
        {
          "internalType": "bool",
          "name": "",
          "type": "bool"
        }
      ],
      "stateMutability": "view",
      "type": "function"
    },
    {
      "inputs": [
        {
          "internalType": "uint256",
          "name": "",
          "type": "uint256"
        }
      ],
      "name": "proposals",
      "outputs": [
        {
          "internalType": "address",
          "name": "author",
          "type": "address"
        },
        {
          "internalType": "string",
          "name": "name",
          "type": "string"
        },
        {
          "internalType": "uint256",
          "name": "votecount",
          "type": "uint256"
        },
        {
          "internalType": "uint256",
          "name": "timestamp",
          "type": "uint256"
        }
      ],
      "stateMutability": "view",
      "type": "function"
    },
    {
      "inputs": [
        {
          "internalType": "uint256",
          "name": "_proposalId",
          "type": "uint256"
        }
      ],
      "name": "vote",
      "outputs": [],
      "stateMutability": "nonpayable",
      "type": "function"
    }
  ],
  "bytecode": "0x6080604052348015600f57600080fd5b5061117d8061001f6000396000f3fe608060405234801561001057600080fd5b50600436106100575760003560e01c80630121b93f1461005c578063013cf08b1461007857806309eef43e146100ab57806335facf78146100db57806362564c48146100f7575b600080fd5b610076600480360381019061007191906106d0565b610115565b005b610092600480360381019061008d91906106d0565b6102b9565b6040516100a294939291906107dd565b60405180910390f35b6100c560048036038101906100c09190610855565b6103a1565b6040516100d2919061089d565b60405180910390f35b6100f560048036038101906100f091906109ed565b6103c1565b005b6100ff61052b565b60405161010c9190610bd6565b60405180910390f35b600080549050811061015c576040517f08c379a000000000000000000000000000000000000000000000000000000000815260040161015390610c44565b60405180910390fd5b600160003373ffffffffffffffffffffffffffffffffffffffff1673ffffffffffffffffffffffffffffffffffffffff16815260200190815260200160002060009054906101000a900460ff16156101e9576040517f08c379a00000000000000000000000000000000000000000000000000000000081526004016101e090610cb0565b60405180910390fd5b6001600082815481106101ff576101fe610cd0565b5b9060005260206000209060040201600201600082825461021f9190610d2e565b9250508190555060018060003373ffffffffffffffffffffffffffffffffffffffff1673ffffffffffffffffffffffffffffffffffffffff16815260200190815260200160002060006101000a81548160ff0219169083151502179055507f030b0f8dcd86a031eddb071f91882edeac8173663ba775713b677b42b51be44b81336040516102ae929190610d62565b60405180910390a150565b600081815481106102c957600080fd5b90600052602060002090600402016000915090508060000160009054906101000a900473ffffffffffffffffffffffffffffffffffffffff169080600101805461031290610dba565b80601f016020809104026020016040519081016040528092919081815260200182805461033e90610dba565b801561038b5780601f106103605761010080835404028352916020019161038b565b820191906000526020600020905b81548152906001019060200180831161036e57829003601f168201915b5050505050908060020154908060030154905084565b60016020528060005260406000206000915054906101000a900460ff1681565b6000825111610405576040517f08c379a00000000000000000000000000000000000000000000000000000000081526004016103fc90610e37565b60405180910390fd5b600060405180608001604052803373ffffffffffffffffffffffffffffffffffffffff1681526020018481526020016000815260200142815250908060018154018082558091505060019003906000526020600020906004020160009091909190915060008201518160000160006101000a81548173ffffffffffffffffffffffffffffffffffffffff021916908373ffffffffffffffffffffffffffffffffffffffff16021790555060208201518160010190816104c49190611003565b50604082015181600201556060820151816003015550507fc8c078bfee58e5822588f08b4509ed1eb5058e03f666cca84dd2d44bf5c288a8600160008054905061050e91906110d5565b833360405161051f93929190611109565b60405180910390a15050565b60606000805480602002602001604051908101604052809291908181526020016000905b8282101561067d57838290600052602060002090600402016040518060800160405290816000820160009054906101000a900473ffffffffffffffffffffffffffffffffffffffff1673ffffffffffffffffffffffffffffffffffffffff1673ffffffffffffffffffffffffffffffffffffffff1681526020016001820180546105d890610dba565b80601f016020809104026020016040519081016040528092919081815260200182805461060490610dba565b80156106515780601f1061062657610100808354040283529160200191610651565b820191906000526020600020905b81548152906001019060200180831161063457829003601f168201915b50505050508152602001600282015481526020016003820154815250508152602001906001019061054f565b50505050905090565b6000604051905090565b600080fd5b600080fd5b6000819050919050565b6106ad8161069a565b81146106b857600080fd5b50565b6000813590506106ca816106a4565b92915050565b6000602082840312156106e6576106e5610690565b5b60006106f4848285016106bb565b91505092915050565b600073ffffffffffffffffffffffffffffffffffffffff82169050919050565b6000610728826106fd565b9050919050565b6107388161071d565b82525050565b600081519050919050565b600082825260208201905092915050565b60005b8381101561077857808201518184015260208101905061075d565b60008484015250505050565b6000601f19601f8301169050919050565b60006107a08261073e565b6107aa8185610749565b93506107ba81856020860161075a565b6107c381610784565b840191505092915050565b6107d78161069a565b82525050565b60006080820190506107f2600083018761072f565b81810360208301526108048186610795565b905061081360408301856107ce565b61082060608301846107ce565b95945050505050565b6108328161071d565b811461083d57600080fd5b50565b60008135905061084f81610829565b92915050565b60006020828403121561086b5761086a610690565b5b600061087984828501610840565b91505092915050565b60008115159050919050565b61089781610882565b82525050565b60006020820190506108b2600083018461088e565b92915050565b600080fd5b600080fd5b7f4e487b7100000000000000000000000000000000000000000000000000000000600052604160045260246000fd5b6108fa82610784565b810181811067ffffffffffffffff82111715610919576109186108c2565b5b80604052505050565b600061092c610686565b905061093882826108f1565b919050565b600067ffffffffffffffff821115610958576109576108c2565b5b61096182610784565b9050602081019050919050565b82818337600083830152505050565b600061099061098b8461093d565b610922565b9050828152602081018484840111156109ac576109ab6108bd565b5b6109b784828561096e565b509392505050565b600082601f8301126109d4576109d36108b8565b5b81356109e484826020860161097d565b91505092915050565b60008060408385031215610a0457610a03610690565b5b600083013567ffffffffffffffff811115610a2257610a21610695565b5b610a2e858286016109bf565b9250506020610a3f858286016106bb565b9150509250929050565b600081519050919050565b600082825260208201905092915050565b6000819050602082019050919050565b610a7e8161071d565b82525050565b600082825260208201905092915050565b6000610aa08261073e565b610aaa8185610a84565b9350610aba81856020860161075a565b610ac381610784565b840191505092915050565b610ad78161069a565b82525050565b6000608083016000830151610af56000860182610a75565b5060208301518482036020860152610b0d8282610a95565b9150506040830151610b226040860182610ace565b506060830151610b356060860182610ace565b508091505092915050565b6000610b4c8383610add565b905092915050565b6000602082019050919050565b6000610b6c82610a49565b610b768185610a54565b935083602082028501610b8885610a65565b8060005b85811015610bc45784840389528151610ba58582610b40565b9450610bb083610b54565b925060208a01995050600181019050610b8c565b50829750879550505050505092915050565b60006020820190508181036000830152610bf08184610b61565b905092915050565b7f50726f706f73616c20546964616b2056616c6964000000000000000000000000600082015250565b6000610c2e601483610749565b9150610c3982610bf8565b602082019050919050565b60006020820190508181036000830152610c5d81610c21565b9050919050565b7f416e6461207375646168206d656d696c69682100000000000000000000000000600082015250565b6000610c9a601383610749565b9150610ca582610c64565b602082019050919050565b60006020820190508181036000830152610cc981610c8d565b9050919050565b7f4e487b7100000000000000000000000000000000000000000000000000000000600052603260045260246000fd5b7f4e487b7100000000000000000000000000000000000000000000000000000000600052601160045260246000fd5b6000610d398261069a565b9150610d448361069a565b9250828201905080821115610d5c57610d5b610cff565b5b92915050565b6000604082019050610d7760008301856107ce565b610d84602083018461072f565b9392505050565b7f4e487b7100000000000000000000000000000000000000000000000000000000600052602260045260246000fd5b60006002820490506001821680610dd257607f821691505b602082108103610de557610de4610d8b565b5b50919050565b7f4e616d6120746964616b2062697361206b6f736f6e6700000000000000000000600082015250565b6000610e21601683610749565b9150610e2c82610deb565b602082019050919050565b60006020820190508181036000830152610e5081610e14565b9050919050565b60008190508160005260206000209050919050565b60006020601f8301049050919050565b600082821b905092915050565b600060088302610eb97fffffffffffffffffffffffffffffffffffffffffffffffffffffffffffffffff82610e7c565b610ec38683610e7c565b95508019841693508086168417925050509392505050565b6000819050919050565b6000610f00610efb610ef68461069a565b610edb565b61069a565b9050919050565b6000819050919050565b610f1a83610ee5565b610f2e610f2682610f07565b848454610e89565b825550505050565b600090565b610f43610f36565b610f4e818484610f11565b505050565b5b81811015610f7257610f67600082610f3b565b600181019050610f54565b5050565b601f821115610fb757610f8881610e57565b610f9184610e6c565b81016020851015610fa0578190505b610fb4610fac85610e6c565b830182610f53565b50505b505050565b600082821c905092915050565b6000610fda60001984600802610fbc565b1980831691505092915050565b6000610ff38383610fc9565b9150826002028217905092915050565b61100c8261073e565b67ffffffffffffffff811115611025576110246108c2565b5b61102f8254610dba565b61103a828285610f76565b600060209050601f83116001811461106d576000841561105b578287015190505b6110658582610fe7565b8655506110cd565b601f19841661107b86610e57565b60005b828110156110a35784890151825560018201915060208501945060208101905061107e565b868310156110c057848901516110bc601f891682610fc9565b8355505b6001600288020188555050505b505050505050565b60006110e08261069a565b91506110eb8361069a565b925082820390508181111561110357611102610cff565b5b92915050565b600060608201905061111e60008301866107ce565b81810360208301526111308185610795565b905061113f604083018461072f565b94935050505056fea2646970667358221220f1c4741664b0fde8f15a667799c521172d7207879346f7d71a83c68f395313a964736f6c634300081c0033",
  "linkReferences": {},
  "deployedLinkReferences": {}
}